{
  "contractName": "LooneySwap",
  "abi": [
    {
      "anonymous": false,
      "inputs": [
        {
          "indexed": false,
          "internalType": "address",
          "name": "sender",
          "type": "address"
        },
        {
          "indexed": false,
          "internalType": "address",
          "name": "tokenIn",
          "type": "address"
        },
        {
          "indexed": false,
          "internalType": "uint256",
          "name": "amountIn",
          "type": "uint256"
        },
        {
          "indexed": false,
          "internalType": "address",
          "name": "tokenOut",
          "type": "address"
        },
        {
          "indexed": false,
          "internalType": "uint256",
          "name": "amountOut",
          "type": "uint256"
        }
      ],
      "name": "swap",
      "type": "event"
    },
    {
      "inputs": [
        {
          "internalType": "address",
          "name": "",
          "type": "address"
        },
        {
          "internalType": "uint256",
          "name": "",
          "type": "uint256"
        }
      ],
      "name": "LPBalances",
      "outputs": [
        {
          "internalType": "uint256",
          "name": "idx",
          "type": "uint256"
        },
        {
          "internalType": "uint256",
          "name": "LPidx",
          "type": "uint256"
        },
        {
          "internalType": "address",
          "name": "owner",
          "type": "address"
        },
        {
          "internalType": "address",
          "name": "token",
          "type": "address"
        },
        {
          "internalType": "uint256",
          "name": "amount",
          "type": "uint256"
        }
      ],
      "stateMutability": "view",
      "type": "function",
      "constant": true
    },
    {
      "inputs": [
        {
          "internalType": "uint256",
          "name": "",
          "type": "uint256"
        }
      ],
      "name": "LQProviders",
      "outputs": [
        {
          "internalType": "address",
          "name": "",
          "type": "address"
        }
      ],
      "stateMutability": "view",
      "type": "function",
      "constant": true
    },
    {
      "inputs": [],
      "name": "getLQProviders",
      "outputs": [
        {
          "internalType": "address[]",
          "name": "",
          "type": "address[]"
        }
      ],
      "stateMutability": "view",
      "type": "function",
      "constant": true
    },
    {
      "inputs": [
        {
          "internalType": "address",
          "name": "LQProvider",
          "type": "address"
        }
      ],
      "name": "getLQBalances",
      "outputs": [
        {
          "components": [
            {
              "internalType": "uint256",
              "name": "idx",
              "type": "uint256"
            },
            {
              "internalType": "uint256",
              "name": "LPidx",
              "type": "uint256"
            },
            {
              "internalType": "address",
              "name": "owner",
              "type": "address"
            },
            {
              "internalType": "address",
              "name": "token",
              "type": "address"
            },
            {
              "internalType": "uint256",
              "name": "amount",
              "type": "uint256"
            }
          ],
          "internalType": "struct LooneySwap.LQProvision[]",
          "name": "",
          "type": "tuple[]"
        }
      ],
      "stateMutability": "view",
      "type": "function",
      "constant": true
    },
    {
      "inputs": [
        {
          "internalType": "address",
          "name": "tokenAddress",
          "type": "address"
        },
        {
          "internalType": "uint256",
          "name": "amount",
          "type": "uint256"
        }
      ],
      "name": "addLiquidity",
      "outputs": [],
      "stateMutability": "nonpayable",
      "type": "function"
    },
    {
      "inputs": [
        {
          "internalType": "address",
          "name": "tokenAddress",
          "type": "address"
        },
        {
          "internalType": "uint256",
          "name": "amount",
          "type": "uint256"
        }
      ],
      "name": "withdrawLiquidity",
      "outputs": [],
      "stateMutability": "nonpayable",
      "type": "function"
    },
    {
      "inputs": [
        {
          "internalType": "address",
          "name": "tokenAddress",
          "type": "address"
        },
        {
          "internalType": "uint256",
          "name": "amount",
          "type": "uint256"
        }
      ],
      "name": "looneySwap",
      "outputs": [],
      "stateMutability": "nonpayable",
      "type": "function"
    }
  ],
  "bytecode": "0x608060405234801561001057600080fd5b50612f2e806100206000396000f3fe608060405234801561001057600080fd5b506004361061007d5760003560e01c8063566887001161005b57806356688700146100ea578063c42ac4f914610106578063ce9542931461013a578063deba2712146101585761007d565b806306d47de9146100825780635123310d1461009e57806355547011146100ce575b600080fd5b61009c600480360381019061009791906124fa565b610188565b005b6100b860048036038101906100b391906124cd565b6104f4565b6040516100c5919061297c565b60405180910390f35b6100e860048036038101906100e391906124fa565b61065b565b005b61010460048036038101906100ff91906124fa565b610a3c565b005b610120600480360381019061011b91906124fa565b6110f9565b604051610131959493929190612a1e565b60405180910390f35b61014261118c565b60405161014f919061295a565b60405180910390f35b610172600480360381019061016d9190612567565b61121a565b60405161017f919061288c565b60405180910390f35b6000805b6000803373ffffffffffffffffffffffffffffffffffffffff1673ffffffffffffffffffffffffffffffffffffffff168152602001908152602001600020805490508110156104e4578373ffffffffffffffffffffffffffffffffffffffff166000803373ffffffffffffffffffffffffffffffffffffffff1673ffffffffffffffffffffffffffffffffffffffff168152602001908152602001600020828154811061023c5761023b612d49565b5b906000526020600020906005020160030160009054906101000a900473ffffffffffffffffffffffffffffffffffffffff1673ffffffffffffffffffffffffffffffffffffffff1614156104d15760019150826000803373ffffffffffffffffffffffffffffffffffffffff1673ffffffffffffffffffffffffffffffffffffffff16815260200190815260200160002082815481106102df576102de612d49565b5b90600052602060002090600502016004015410156102fc57600080fd5b6103676000803373ffffffffffffffffffffffffffffffffffffffff1673ffffffffffffffffffffffffffffffffffffffff168152602001908152602001600020828154811061034f5761034e612d49565b5b90600052602060002090600502016004015484611259565b6000803373ffffffffffffffffffffffffffffffffffffffff1673ffffffffffffffffffffffffffffffffffffffff16815260200190815260200160002082815481106103b7576103b6612d49565b5b90600052602060002090600502016004018190555060008060003373ffffffffffffffffffffffffffffffffffffffff1673ffffffffffffffffffffffffffffffffffffffff168152602001908152602001600020828154811061041e5761041d612d49565b5b906000526020600020906005020160040154141561044257610440338561126f565b505b8373ffffffffffffffffffffffffffffffffffffffff1663a9059cbb33856040518363ffffffff1660e01b815260040161047d929190612931565b602060405180830381600087803b15801561049757600080fd5b505af11580156104ab573d6000803e3d6000fd5b505050506040513d601f19601f820116820180604052508101906104cf919061253a565b505b80806104dc90612c38565b91505061018c565b50806104ef57600080fd5b505050565b60606000808373ffffffffffffffffffffffffffffffffffffffff1673ffffffffffffffffffffffffffffffffffffffff168152602001908152602001600020805480602002602001604051908101604052809291908181526020016000905b8282101561065057838290600052602060002090600502016040518060a001604052908160008201548152602001600182015481526020016002820160009054906101000a900473ffffffffffffffffffffffffffffffffffffffff1673ffffffffffffffffffffffffffffffffffffffff1673ffffffffffffffffffffffffffffffffffffffff1681526020016003820160009054906101000a900473ffffffffffffffffffffffffffffffffffffffff1673ffffffffffffffffffffffffffffffffffffffff1673ffffffffffffffffffffffffffffffffffffffff16815260200160048201548152505081526020019060010190610554565b505050509050919050565b6000600180549050116106a3576040517f08c379a000000000000000000000000000000000000000000000000000000000815260040161069a906129be565b60405180910390fd5b8173ffffffffffffffffffffffffffffffffffffffff166323b872dd3330846040518463ffffffff1660e01b81526004016106e0939291906128a7565b602060405180830381600087803b1580156106fa57600080fd5b505af115801561070e573d6000803e3d6000fd5b505050506040513d601f19601f82011682018060405250810190610732919061253a565b50600060018080549050610744611a90565b61074e9190612c8b565b8154811061075f5761075e612d49565b5b9060005260206000200160009054906101000a900473ffffffffffffffffffffffffffffffffffffffff16905060008060008373ffffffffffffffffffffffffffffffffffffffff1673ffffffffffffffffffffffffffffffffffffffff168152602001908152602001600020805490506107d8611a90565b6107e29190612c8b565b905060008060008473ffffffffffffffffffffffffffffffffffffffff1673ffffffffffffffffffffffffffffffffffffffff168152602001908152602001600020828154811061083657610835612d49565b5b906000526020600020906005020160030160009054906101000a900473ffffffffffffffffffffffffffffffffffffffff16905060008060008573ffffffffffffffffffffffffffffffffffffffff1673ffffffffffffffffffffffffffffffffffffffff16815260200190815260200160002083815481106108bc576108bb612d49565b5b906000526020600020906005020160040154905061095b846000808773ffffffffffffffffffffffffffffffffffffffff1673ffffffffffffffffffffffffffffffffffffffff168152602001908152602001600020858154811061092457610923612d49565b5b906000526020600020906005020160030160009054906101000a900473ffffffffffffffffffffffffffffffffffffffff1661126f565b50610967848787611ac6565b8173ffffffffffffffffffffffffffffffffffffffff1663a9059cbb33836040518363ffffffff1660e01b81526004016109a2929190612931565b602060405180830381600087803b1580156109bc57600080fd5b505af11580156109d0573d6000803e3d6000fd5b505050506040513d601f19601f820116820180604052508101906109f4919061253a565b507f17d88f460804436c124cc76f905b8723f04541b9ec5918d9261278e9f43a62ff3387878585604051610a2c9594939291906128de565b60405180910390a1505050505050565b8173ffffffffffffffffffffffffffffffffffffffff166323b872dd3330846040518463ffffffff1660e01b8152600401610a79939291906128a7565b602060405180830381600087803b158015610a9357600080fd5b505af1158015610aa7573d6000803e3d6000fd5b505050506040513d601f19601f82011682018060405250810190610acb919061253a565b5060008060003373ffffffffffffffffffffffffffffffffffffffff1673ffffffffffffffffffffffffffffffffffffffff168152602001908152602001600020805490501415610cf7576001339080600181540180825580915050600190039060005260206000200160009091909190916101000a81548173ffffffffffffffffffffffffffffffffffffffff021916908373ffffffffffffffffffffffffffffffffffffffff1602179055506000803373ffffffffffffffffffffffffffffffffffffffff1673ffffffffffffffffffffffffffffffffffffffff1681526020019081526020016000206040518060a001604052806000815260200160018080549050610bda9190612b82565b81526020013373ffffffffffffffffffffffffffffffffffffffff1681526020018473ffffffffffffffffffffffffffffffffffffffff168152602001838152509080600181540180825580915050600190039060005260206000209060050201600090919091909150600082015181600001556020820151816001015560408201518160020160006101000a81548173ffffffffffffffffffffffffffffffffffffffff021916908373ffffffffffffffffffffffffffffffffffffffff16021790555060608201518160030160006101000a81548173ffffffffffffffffffffffffffffffffffffffff021916908373ffffffffffffffffffffffffffffffffffffffff1602179055506080820151816004015550506110f5565b6000805b6000803373ffffffffffffffffffffffffffffffffffffffff1673ffffffffffffffffffffffffffffffffffffffff16815260200190815260200160002080549050811015610ee1578373ffffffffffffffffffffffffffffffffffffffff166000803373ffffffffffffffffffffffffffffffffffffffff1673ffffffffffffffffffffffffffffffffffffffff1681526020019081526020016000208281548110610dab57610daa612d49565b5b906000526020600020906005020160030160009054906101000a900473ffffffffffffffffffffffffffffffffffffffff1673ffffffffffffffffffffffffffffffffffffffff161415610ece57610e646000803373ffffffffffffffffffffffffffffffffffffffff1673ffffffffffffffffffffffffffffffffffffffff1681526020019081526020016000208281548110610e4c57610e4b612d49565b5b906000526020600020906005020160040154846120f4565b6000803373ffffffffffffffffffffffffffffffffffffffff1673ffffffffffffffffffffffffffffffffffffffff1681526020019081526020016000208281548110610eb457610eb3612d49565b5b906000526020600020906005020160040181905550600191505b8080610ed990612c38565b915050610cfb565b50806110f3576000803373ffffffffffffffffffffffffffffffffffffffff1673ffffffffffffffffffffffffffffffffffffffff1681526020019081526020016000206040518060a001604052806000803373ffffffffffffffffffffffffffffffffffffffff1673ffffffffffffffffffffffffffffffffffffffff1681526020019081526020016000208054905081526020016000803373ffffffffffffffffffffffffffffffffffffffff1673ffffffffffffffffffffffffffffffffffffffff168152602001908152602001600020600081548110610fc857610fc7612d49565b5b90600052602060002090600502016001015481526020013373ffffffffffffffffffffffffffffffffffffffff1681526020018573ffffffffffffffffffffffffffffffffffffffff168152602001848152509080600181540180825580915050600190039060005260206000209060050201600090919091909150600082015181600001556020820151816001015560408201518160020160006101000a81548173ffffffffffffffffffffffffffffffffffffffff021916908373ffffffffffffffffffffffffffffffffffffffff16021790555060608201518160030160006101000a81548173ffffffffffffffffffffffffffffffffffffffff021916908373ffffffffffffffffffffffffffffffffffffffff1602179055506080820151816004015550505b505b5050565b6000602052816000526040600020818154811061111557600080fd5b9060005260206000209060050201600091509150508060000154908060010154908060020160009054906101000a900473ffffffffffffffffffffffffffffffffffffffff16908060030160009054906101000a900473ffffffffffffffffffffffffffffffffffffffff16908060040154905085565b6060600180548060200260200160405190810160405280929190818152602001828054801561121057602002820191906000526020600020905b8160009054906101000a900473ffffffffffffffffffffffffffffffffffffffff1673ffffffffffffffffffffffffffffffffffffffff16815260200190600101908083116111c6575b5050505050905090565b6001818154811061122a57600080fd5b906000526020600020016000915054906101000a900473ffffffffffffffffffffffffffffffffffffffff1681565b600081836112679190612b82565b905092915050565b600061127a8361210a565b6112b9576040517f08c379a00000000000000000000000000000000000000000000000000000000081526004016112b09061299e565b60405180910390fd5b60008060008573ffffffffffffffffffffffffffffffffffffffff1673ffffffffffffffffffffffffffffffffffffffff168152602001908152602001600020805490501161133d576040517f08c379a0000000000000000000000000000000000000000000000000000000008152600401611334906129de565b60405180910390fd5b60016000808573ffffffffffffffffffffffffffffffffffffffff1673ffffffffffffffffffffffffffffffffffffffff168152602001908152602001600020805490501415611558578173ffffffffffffffffffffffffffffffffffffffff166000808573ffffffffffffffffffffffffffffffffffffffff1673ffffffffffffffffffffffffffffffffffffffff1681526020019081526020016000206000815481106113ef576113ee612d49565b5b906000526020600020906005020160030160009054906101000a900473ffffffffffffffffffffffffffffffffffffffff1673ffffffffffffffffffffffffffffffffffffffff16141561151d57611446836121e2565b506000808473ffffffffffffffffffffffffffffffffffffffff1673ffffffffffffffffffffffffffffffffffffffff16815260200190815260200160002080548061149557611494612d1a565b5b600190038181906000526020600020906005020160008082016000905560018201600090556002820160006101000a81549073ffffffffffffffffffffffffffffffffffffffff02191690556003820160006101000a81549073ffffffffffffffffffffffffffffffffffffffff021916905560048201600090555050905560019050611a8a565b6040517f08c379a000000000000000000000000000000000000000000000000000000000815260040161154f906129fe565b60405180910390fd5b60008060005b6000808773ffffffffffffffffffffffffffffffffffffffff1673ffffffffffffffffffffffffffffffffffffffff168152602001908152602001600020805490508110156116d8578473ffffffffffffffffffffffffffffffffffffffff166000808873ffffffffffffffffffffffffffffffffffffffff1673ffffffffffffffffffffffffffffffffffffffff168152602001908152602001600020828154811061160e5761160d612d49565b5b906000526020600020906005020160030160009054906101000a900473ffffffffffffffffffffffffffffffffffffffff1673ffffffffffffffffffffffffffffffffffffffff1614156116c5576000808773ffffffffffffffffffffffffffffffffffffffff1673ffffffffffffffffffffffffffffffffffffffff16815260200190815260200160002081815481106116ac576116ab612d49565b5b9060005260206000209060050201600001549250600191505b80806116d090612c38565b91505061155e565b5080611719576040517f08c379a0000000000000000000000000000000000000000000000000000000008152600401611710906129fe565b60405180910390fd5b60008060008773ffffffffffffffffffffffffffffffffffffffff1673ffffffffffffffffffffffffffffffffffffffff16815260200190815260200160002060016000808973ffffffffffffffffffffffffffffffffffffffff1673ffffffffffffffffffffffffffffffffffffffff168152602001908152602001600020805490506117a79190612b82565b815481106117b8576117b7612d49565b5b90600052602060002090600502016040518060a001604052908160008201548152602001600182015481526020016002820160009054906101000a900473ffffffffffffffffffffffffffffffffffffffff1673ffffffffffffffffffffffffffffffffffffffff1673ffffffffffffffffffffffffffffffffffffffff1681526020016003820160009054906101000a900473ffffffffffffffffffffffffffffffffffffffff1673ffffffffffffffffffffffffffffffffffffffff1673ffffffffffffffffffffffffffffffffffffffff168152602001600482015481525050905082816000018181525050806000808873ffffffffffffffffffffffffffffffffffffffff1673ffffffffffffffffffffffffffffffffffffffff16815260200190815260200160002084815481106118f8576118f7612d49565b5b9060005260206000209060050201600082015181600001556020820151816001015560408201518160020160006101000a81548173ffffffffffffffffffffffffffffffffffffffff021916908373ffffffffffffffffffffffffffffffffffffffff16021790555060608201518160030160006101000a81548173ffffffffffffffffffffffffffffffffffffffff021916908373ffffffffffffffffffffffffffffffffffffffff160217905550608082015181600401559050506000808773ffffffffffffffffffffffffffffffffffffffff1673ffffffffffffffffffffffffffffffffffffffff168152602001908152602001600020805480611a0357611a02612d1a565b5b600190038181906000526020600020906005020160008082016000905560018201600090556002820160006101000a81549073ffffffffffffffffffffffffffffffffffffffff02191690556003820160006101000a81549073ffffffffffffffffffffffffffffffffffffffff0219169055600482016000905550509055600193505050505b92915050565b600044426001604051602001611aa893929190612853565b6040516020818303038152906040528051906020012060001c905090565b60008060008573ffffffffffffffffffffffffffffffffffffffff1673ffffffffffffffffffffffffffffffffffffffff168152602001908152602001600020805490501415611cf1576001839080600181540180825580915050600190039060005260206000200160009091909190916101000a81548173ffffffffffffffffffffffffffffffffffffffff021916908373ffffffffffffffffffffffffffffffffffffffff1602179055506000808473ffffffffffffffffffffffffffffffffffffffff1673ffffffffffffffffffffffffffffffffffffffff1681526020019081526020016000206040518060a001604052806000815260200160018080549050611bd49190612b82565b81526020018573ffffffffffffffffffffffffffffffffffffffff1681526020018473ffffffffffffffffffffffffffffffffffffffff168152602001838152509080600181540180825580915050600190039060005260206000209060050201600090919091909150600082015181600001556020820151816001015560408201518160020160006101000a81548173ffffffffffffffffffffffffffffffffffffffff021916908373ffffffffffffffffffffffffffffffffffffffff16021790555060608201518160030160006101000a81548173ffffffffffffffffffffffffffffffffffffffff021916908373ffffffffffffffffffffffffffffffffffffffff1602179055506080820151816004015550506120ef565b6000805b6000808673ffffffffffffffffffffffffffffffffffffffff1673ffffffffffffffffffffffffffffffffffffffff16815260200190815260200160002080549050811015611edb578373ffffffffffffffffffffffffffffffffffffffff166000808773ffffffffffffffffffffffffffffffffffffffff1673ffffffffffffffffffffffffffffffffffffffff1681526020019081526020016000208281548110611da557611da4612d49565b5b906000526020600020906005020160030160009054906101000a900473ffffffffffffffffffffffffffffffffffffffff1673ffffffffffffffffffffffffffffffffffffffff161415611ec857611e5e6000808773ffffffffffffffffffffffffffffffffffffffff1673ffffffffffffffffffffffffffffffffffffffff1681526020019081526020016000208281548110611e4657611e45612d49565b5b906000526020600020906005020160040154846120f4565b6000808773ffffffffffffffffffffffffffffffffffffffff1673ffffffffffffffffffffffffffffffffffffffff1681526020019081526020016000208281548110611eae57611ead612d49565b5b906000526020600020906005020160040181905550600191505b8080611ed390612c38565b915050611cf5565b50806120ed576000808573ffffffffffffffffffffffffffffffffffffffff1673ffffffffffffffffffffffffffffffffffffffff1681526020019081526020016000206040518060a001604052806000808873ffffffffffffffffffffffffffffffffffffffff1673ffffffffffffffffffffffffffffffffffffffff1681526020019081526020016000208054905081526020016000808873ffffffffffffffffffffffffffffffffffffffff1673ffffffffffffffffffffffffffffffffffffffff168152602001908152602001600020600081548110611fc257611fc1612d49565b5b90600052602060002090600502016001015481526020018673ffffffffffffffffffffffffffffffffffffffff1681526020018573ffffffffffffffffffffffffffffffffffffffff168152602001848152509080600181540180825580915050600190039060005260206000209060050201600090919091909150600082015181600001556020820151816001015560408201518160020160006101000a81548173ffffffffffffffffffffffffffffffffffffffff021916908373ffffffffffffffffffffffffffffffffffffffff16021790555060608201518160030160006101000a81548173ffffffffffffffffffffffffffffffffffffffff021916908373ffffffffffffffffffffffffffffffffffffffff1602179055506080820151816004015550505b505b505050565b600081836121029190612b2c565b905092915050565b60008173ffffffffffffffffffffffffffffffffffffffff1660016000808573ffffffffffffffffffffffffffffffffffffffff1673ffffffffffffffffffffffffffffffffffffffff16815260200190815260200160002060008154811061217657612175612d49565b5b9060005260206000209060050201600101548154811061219957612198612d49565b5b9060005260206000200160009054906101000a900473ffffffffffffffffffffffffffffffffffffffff1673ffffffffffffffffffffffffffffffffffffffff16149050919050565b60006121ed8261210a565b61222c576040517f08c379a00000000000000000000000000000000000000000000000000000000081526004016122239061299e565b60405180910390fd5b60008060008473ffffffffffffffffffffffffffffffffffffffff1673ffffffffffffffffffffffffffffffffffffffff16815260200190815260200160002060008154811061227f5761227e612d49565b5b9060005260206000209060050201600101549050600060018080805490506122a79190612b82565b815481106122b8576122b7612d49565b5b9060005260206000200160009054906101000a900473ffffffffffffffffffffffffffffffffffffffff1690508073ffffffffffffffffffffffffffffffffffffffff168473ffffffffffffffffffffffffffffffffffffffff161461243c57806001838154811061232d5761232c612d49565b5b9060005260206000200160006101000a81548173ffffffffffffffffffffffffffffffffffffffff021916908373ffffffffffffffffffffffffffffffffffffffff16021790555060005b6000808373ffffffffffffffffffffffffffffffffffffffff1673ffffffffffffffffffffffffffffffffffffffff1681526020019081526020016000208054905081101561243a57826000808473ffffffffffffffffffffffffffffffffffffffff1673ffffffffffffffffffffffffffffffffffffffff168152602001908152602001600020828154811061241257612411612d49565b5b906000526020600020906005020160010181905550808061243290612c38565b915050612378565b505b600180548061244e5761244d612d1a565b5b6001900381819060005260206000200160006101000a81549073ffffffffffffffffffffffffffffffffffffffff02191690559055600192505050919050565b60008135905061249d81612eb3565b92915050565b6000815190506124b281612eca565b92915050565b6000813590506124c781612ee1565b92915050565b6000602082840312156124e3576124e2612d8b565b5b60006124f18482850161248e565b91505092915050565b6000806040838503121561251157612510612d8b565b5b600061251f8582860161248e565b9250506020612530858286016124b8565b9150509250929050565b6000602082840312156125505761254f612d8b565b5b600061255e848285016124a3565b91505092915050565b60006020828403121561257d5761257c612d8b565b5b600061258b848285016124b8565b91505092915050565b60006125a083836125dc565b60208301905092915050565b60006125b883836125fa565b60208301905092915050565b60006125d083836127b6565b60a08301905092915050565b6125e581612bd6565b82525050565b6125f481612bd6565b82525050565b61260381612bd6565b82525050565b600061261482612aa6565b61261e8185612aee565b935061262983612a71565b8060005b8381101561265a5781516126418882612594565b975061264c83612ac7565b92505060018101905061262d565b5085935050505092915050565b600061267282612ab1565b61267c8185612aff565b935061268783612a81565b8060005b838110156126bf5761269c82612d78565b6126a688826125ac565b97506126b183612ad4565b92505060018101905061268b565b5085935050505092915050565b60006126d782612abc565b6126e18185612b0a565b93506126ec83612a96565b8060005b8381101561271d57815161270488826125c4565b975061270f83612ae1565b9250506001810190506126f0565b5085935050505092915050565b6000612737602883612b1b565b915061274282612d9d565b604082019050919050565b600061275a601683612b1b565b915061276582612dec565b602082019050919050565b600061277d602683612b1b565b915061278882612e15565b604082019050919050565b60006127a0602583612b1b565b91506127ab82612e64565b604082019050919050565b60a0820160008201516127cc600085018261281e565b5060208201516127df602085018261281e565b5060408201516127f260408501826125dc565b50606082015161280560608501826125dc565b506080820151612818608085018261281e565b50505050565b61282781612c14565b82525050565b61283681612c14565b82525050565b61284d61284882612c14565b612c81565b82525050565b600061285f828661283c565b60208201915061286f828561283c565b60208201915061287f8284612667565b9150819050949350505050565b60006020820190506128a160008301846125eb565b92915050565b60006060820190506128bc60008301866125eb565b6128c960208301856125eb565b6128d6604083018461282d565b949350505050565b600060a0820190506128f360008301886125eb565b61290060208301876125eb565b61290d604083018661282d565b61291a60608301856125eb565b612927608083018461282d565b9695505050505050565b600060408201905061294660008301856125eb565b612953602083018461282d565b9392505050565b600060208201905081810360008301526129748184612609565b905092915050565b6000602082019050818103600083015261299681846126cc565b905092915050565b600060208201905081810360008301526129b78161272a565b9050919050565b600060208201905081810360008301526129d78161274d565b9050919050565b600060208201905081810360008301526129f781612770565b9050919050565b60006020820190508181036000830152612a1781612793565b9050919050565b600060a082019050612a33600083018861282d565b612a40602083018761282d565b612a4d60408301866125eb565b612a5a60608301856125eb565b612a67608083018461282d565b9695505050505050565b6000819050602082019050919050565b60008190508160005260206000209050919050565b6000819050602082019050919050565b600081519050919050565b600081549050919050565b600081519050919050565b6000602082019050919050565b6000600182019050919050565b6000602082019050919050565b600082825260208201905092915050565b600081905092915050565b600082825260208201905092915050565b600082825260208201905092915050565b6000612b3782612c14565b9150612b4283612c14565b9250827fffffffffffffffffffffffffffffffffffffffffffffffffffffffffffffffff03821115612b7757612b76612cbc565b5b828201905092915050565b6000612b8d82612c14565b9150612b9883612c14565b925082821015612bab57612baa612cbc565b5b828203905092915050565b600073ffffffffffffffffffffffffffffffffffffffff82169050919050565b6000612be182612bf4565b9050919050565b60008115159050919050565b600073ffffffffffffffffffffffffffffffffffffffff82169050919050565b6000819050919050565b6000612c31612c2c83612d90565b612bb6565b9050919050565b6000612c4382612c14565b91507fffffffffffffffffffffffffffffffffffffffffffffffffffffffffffffffff821415612c7657612c75612cbc565b5b600182019050919050565b6000819050919050565b6000612c9682612c14565b9150612ca183612c14565b925082612cb157612cb0612ceb565b5b828206905092915050565b7f4e487b7100000000000000000000000000000000000000000000000000000000600052601160045260246000fd5b7f4e487b7100000000000000000000000000000000000000000000000000000000600052601260045260246000fd5b7f4e487b7100000000000000000000000000000000000000000000000000000000600052603160045260246000fd5b7f4e487b7100000000000000000000000000000000000000000000000000000000600052603260045260246000fd5b6000612d848254612c1e565b9050919050565b600080fd5b60008160001c9050919050565b7f546869732061646472657373206973206e6f742061206c69716975646974792060008201527f70726f7669646572000000000000000000000000000000000000000000000000602082015250565b7f4e6f206c697175696469747920617661696c61626c6500000000000000000000600082015250565b7f4e6f206c69717569646974792062616c616e63657320666f722074686973206160008201527f6464726573730000000000000000000000000000000000000000000000000000602082015250565b7f54686973206164647265737320646f6573206e6f7420686f6c6420746869732060008201527f746f6b656e000000000000000000000000000000000000000000000000000000602082015250565b612ebc81612bd6565b8114612ec757600080fd5b50565b612ed381612be8565b8114612ede57600080fd5b50565b612eea81612c14565b8114612ef557600080fd5b5056fea26469706673582212200d3bbe6598af67fe0b21f1ef1ea7fa28c16d76e4ad00b94f8d53f3e016d2998264736f6c63430008060033",
  "immutableReferences": {},
  "source": "// SPDX-License-Identifier: MIT\r\npragma solidity ^0.8.0;\r\n\r\n// may need to remove \"../node_modules/\" before compilation and migration\r\nimport \"@openzeppelin/contracts/token/ERC20/IERC20.sol\";\r\nimport \"@openzeppelin/contracts/utils/math/SafeMath.sol\";\r\n\r\ncontract LooneySwap {\r\n    using SafeMath for uint256;\r\n\r\n    event swap(address sender, address tokenIn, uint amountIn, address tokenOut, uint amountOut);\r\n\r\n    struct LQProvision {\r\n        uint idx;       //index in the array in LPBalances mapping\r\n        uint LPidx;     //index in the LQProviders array\r\n        address owner;\r\n        address token;\r\n        uint amount;\r\n    }\r\n\r\n    //user address mapping to array with all of their token balances\r\n    mapping(address => LQProvision[]) public LPBalances;\r\n\r\n    //holds all available liquidity providers\r\n    address[] public LQProviders;\r\n\r\n    // getter function\r\n    function getLQProviders() external view returns(address[] memory) {\r\n        return LQProviders;\r\n    }\r\n\r\n    function getLQBalances(address LQProvider) external view returns(LQProvision[] memory) {\r\n        return LPBalances[LQProvider];\r\n    }\r\n\r\n    // helper function checking to make sure an address is actually a liquidity provider\r\n    function isLP(address LPAddress) private view returns(bool isIndeed) {\r\n        return LQProviders[LPBalances[LPAddress][0].LPidx] == LPAddress;\r\n    }\r\n\r\n    // call this function to add liquidity to the contract\r\n    // new liquidity providers are added to the LQProviders array and balances are stored/updated in LPBalances mapping\r\n    function addLiquidity(address tokenAddress, uint amount) external {\r\n        IERC20(tokenAddress).transferFrom(msg.sender, address(this), amount);\r\n        if(LPBalances[msg.sender].length == 0) {\r\n            LQProviders.push(msg.sender);\r\n            LPBalances[msg.sender].push(LQProvision(0, LQProviders.length-1, msg.sender, tokenAddress, amount));\r\n        } else {\r\n            bool added = false;\r\n            for (uint i = 0; i < LPBalances[msg.sender].length; i++) {\r\n                if(LPBalances[msg.sender][i].token == tokenAddress) {\r\n                    LPBalances[msg.sender][i].amount = SafeMath.add(LPBalances[msg.sender][i].amount, amount);\r\n                    added = true;\r\n                }\r\n            }\r\n            if(!added) {\r\n                    LPBalances[msg.sender].push(LQProvision(LPBalances[msg.sender].length, LPBalances[msg.sender][0].LPidx, msg.sender, tokenAddress, amount));\r\n                }\r\n        }\r\n    }\r\n\r\n    // call this function to withdraw liquidity from the contract\r\n    // if an LP withdraws all liquidity for one of their tokens, that token is removed from their balances array\r\n    // if an LP withdraws all liquidity, they will be removed from the LQProviders array and LPBalances mapping\r\n    function withdrawLiquidity(address tokenAddress, uint amount) external {\r\n        bool found = false;\r\n        for (uint i = 0; i < LPBalances[msg.sender].length; i++) {\r\n            if(LPBalances[msg.sender][i].token == tokenAddress) {\r\n                found = true;\r\n                if(LPBalances[msg.sender][i].amount < amount) {\r\n                    revert();\r\n                }\r\n                LPBalances[msg.sender][i].amount = SafeMath.sub(LPBalances[msg.sender][i].amount, amount);\r\n                if(LPBalances[msg.sender][i].amount == 0) {\r\n                    deleteLQProvision(msg.sender, tokenAddress);\r\n                }\r\n                IERC20(tokenAddress).transfer(msg.sender, amount);\r\n            }\r\n        }\r\n        if(!found) revert();\r\n    }\r\n\r\n    // randomly selects a liquidity provider and one of that providers tokens\r\n    // sends the entire balance of those tokens to the caller and adds the caller's\r\n    // tokens to the LQProvider's balance\r\n    function looneySwap(address tokenAddress, uint amount) external {\r\n        require(LQProviders.length > 0, \"No liquidity available\");\r\n        IERC20(tokenAddress).transferFrom(msg.sender, address(this), amount);\r\n        address randAddress = LQProviders[random() % LQProviders.length];\r\n        uint randToken = random() % LPBalances[randAddress].length;\r\n        address tokenToTransfer = LPBalances[randAddress][randToken].token;\r\n        uint amountToTransfer = LPBalances[randAddress][randToken].amount;\r\n        deleteLQProvision(randAddress, LPBalances[randAddress][randToken].token);\r\n        addBalance(randAddress, tokenAddress, amount);\r\n        IERC20(tokenToTransfer).transfer(msg.sender, amountToTransfer);\r\n        emit swap(msg.sender, tokenAddress, amount, tokenToTransfer, amountToTransfer);\r\n    }\r\n\r\n    // called by looneySwap to add the swapped token to the liquitidy provider's balance\r\n    function addBalance(address LPAddress, address tokenAddress, uint amount) private {\r\n        if(LPBalances[LPAddress].length == 0) {\r\n            LQProviders.push(LPAddress);\r\n            LPBalances[LPAddress].push(LQProvision(0, LQProviders.length-1, LPAddress, tokenAddress, amount));\r\n        } else {\r\n            bool added = false;\r\n            for (uint i = 0; i < LPBalances[LPAddress].length; i++) {\r\n            if(LPBalances[LPAddress][i].token == tokenAddress) {\r\n                LPBalances[LPAddress][i].amount = SafeMath.add(LPBalances[LPAddress][i].amount, amount);\r\n                added = true;\r\n            }\r\n        }\r\n        if(!added) {\r\n                LPBalances[LPAddress].push(LQProvision(LPBalances[LPAddress].length, LPBalances[LPAddress][0].LPidx, LPAddress, tokenAddress, amount));\r\n            }\r\n        }\r\n    }\r\n\r\n    // generates random number for looneyswap function\r\n    function random() private view returns (uint) {\r\n        return uint(keccak256(abi.encodePacked(block.difficulty, block.timestamp, LQProviders)));\r\n    }\r\n\r\n    //call this function when a user withdraws liquidity for a given token\r\n    function deleteLQProvision(address LPAddress, address tokenAddress) private returns(bool success) {\r\n        require(isLP(LPAddress), \"This address is not a liqiudity provider\");\r\n        require(LPBalances[LPAddress].length > 0, \"No liquidity balances for this address\");\r\n        if(LPBalances[LPAddress].length == 1) {\r\n            if(LPBalances[LPAddress][0].token == tokenAddress) {\r\n                deleteLQProvider(LPAddress);\r\n                LPBalances[LPAddress].pop();\r\n                return true;\r\n            } else {\r\n                revert(\"This address does not hold this token\");\r\n            }\r\n        }\r\n        uint toDelete = 0;\r\n        bool found = false;\r\n        for (uint i = 0; i < LPBalances[LPAddress].length; i++) {\r\n            if (LPBalances[LPAddress][i].token == tokenAddress) {\r\n                toDelete = LPBalances[LPAddress][i].idx;\r\n                found = true;\r\n            }\r\n        }\r\n        if(!found) revert(\"This address does not hold this token\");\r\n        LQProvision memory toMove = LPBalances[LPAddress][LPBalances[LPAddress].length-1];\r\n        toMove.idx = toDelete;\r\n        LPBalances[LPAddress][toDelete] = toMove;\r\n        LPBalances[LPAddress].pop();\r\n        return true;\r\n    }\r\n\r\n    //this function should only be called by deleteLQProvision. if the last LQProvision is withdrawn\r\n    //for a given LQProvider then deleteLQProvider will be called.\r\n    function deleteLQProvider(address LPAddress) private returns(bool success) {\r\n        require(isLP(LPAddress), \"This address is not a liqiudity provider\");\r\n        uint toDelete = LPBalances[LPAddress][0].LPidx;\r\n        address toMove = LQProviders[LQProviders.length-1];\r\n        if(LPAddress != toMove) {\r\n            LQProviders[toDelete] = toMove;\r\n            for (uint i = 0; i < LPBalances[toMove].length; i++) {\r\n                LPBalances[toMove][i].LPidx = toDelete;\r\n            }\r\n        }\r\n        LQProviders.pop();\r\n        return true;\r\n    }\r\n}",
  "sourcePath": "C:/Users/cpontrelli/Desktop/OSU Assignments/467/LooneySwap/truffle-env/contracts/LooneySwap.sol",
  "compiler": {
    "name": "solc",
    "version": "0.8.6+commit.11564f7e.Emscripten.clang"
  },
  "schemaVersion": "3.4.1",
  "updatedAt": "2021-07-25T03:13:58.464Z",
  "networkType": "ethereum",
  "devdoc": {
    "kind": "dev",
    "methods": {},
    "version": 1
  },
  "userdoc": {
    "kind": "user",
    "methods": {},
    "version": 1
  }
}