{
  "contractName": "LooneySwap",
  "abi": [
    {
      "inputs": [
        {
          "internalType": "address",
          "name": "",
          "type": "address"
        },
        {
          "internalType": "uint256",
          "name": "",
          "type": "uint256"
        }
      ],
      "name": "LPBalances",
      "outputs": [
        {
          "internalType": "uint256",
          "name": "idx",
          "type": "uint256"
        },
        {
          "internalType": "uint256",
          "name": "LPidx",
          "type": "uint256"
        },
        {
          "internalType": "address",
          "name": "owner",
          "type": "address"
        },
        {
          "internalType": "address",
          "name": "token",
          "type": "address"
        },
        {
          "internalType": "uint256",
          "name": "amount",
          "type": "uint256"
        }
      ],
      "stateMutability": "view",
      "type": "function",
      "constant": true
    },
    {
      "inputs": [
        {
          "internalType": "uint256",
          "name": "",
          "type": "uint256"
        }
      ],
      "name": "LQProviders",
      "outputs": [
        {
          "internalType": "address",
          "name": "",
          "type": "address"
        }
      ],
      "stateMutability": "view",
      "type": "function",
      "constant": true
    },
    {
      "inputs": [],
      "name": "getLQProviders",
      "outputs": [
        {
          "internalType": "address[]",
          "name": "",
          "type": "address[]"
        }
      ],
      "stateMutability": "view",
      "type": "function",
      "constant": true
    },
    {
      "inputs": [
        {
          "internalType": "address",
          "name": "LQProvider",
          "type": "address"
        }
      ],
      "name": "getLQBalances",
      "outputs": [
        {
          "components": [
            {
              "internalType": "uint256",
              "name": "idx",
              "type": "uint256"
            },
            {
              "internalType": "uint256",
              "name": "LPidx",
              "type": "uint256"
            },
            {
              "internalType": "address",
              "name": "owner",
              "type": "address"
            },
            {
              "internalType": "address",
              "name": "token",
              "type": "address"
            },
            {
              "internalType": "uint256",
              "name": "amount",
              "type": "uint256"
            }
          ],
          "internalType": "struct LooneySwap.LQProvision[]",
          "name": "",
          "type": "tuple[]"
        }
      ],
      "stateMutability": "view",
      "type": "function",
      "constant": true
    },
    {
      "inputs": [
        {
          "internalType": "address",
          "name": "tokenAddress",
          "type": "address"
        },
        {
          "internalType": "uint256",
          "name": "amount",
          "type": "uint256"
        }
      ],
      "name": "addLiquidity",
      "outputs": [],
      "stateMutability": "nonpayable",
      "type": "function"
    },
    {
      "inputs": [
        {
          "internalType": "address",
          "name": "tokenAddress",
          "type": "address"
        },
        {
          "internalType": "uint256",
          "name": "amount",
          "type": "uint256"
        }
      ],
      "name": "withdrawLiquidity",
      "outputs": [],
      "stateMutability": "nonpayable",
      "type": "function"
    },
    {
      "inputs": [
        {
          "internalType": "address",
          "name": "tokenAddress",
          "type": "address"
        },
        {
          "internalType": "uint256",
          "name": "amount",
          "type": "uint256"
        }
      ],
      "name": "looneySwap",
      "outputs": [],
      "stateMutability": "nonpayable",
      "type": "function"
    }
  ],
  "bytecode": "0x608060405234801561001057600080fd5b50612da7806100206000396000f3fe608060405234801561001057600080fd5b506004361061007d5760003560e01c8063566887001161005b57806356688700146100ea578063c42ac4f914610106578063ce9542931461013a578063deba2712146101585761007d565b806306d47de9146100825780635123310d1461009e57806355547011146100ce575b600080fd5b61009c600480360381019061009791906123c6565b610188565b005b6100b860048036038101906100b39190612399565b6104f4565b6040516100c591906127f5565b60405180910390f35b6100e860048036038101906100e391906123c6565b61065b565b005b61010460048036038101906100ff91906123c6565b610b34565b005b610120600480360381019061011b91906123c6565b6111f1565b604051610131959493929190612897565b60405180910390f35b610142611284565b60405161014f91906127d3565b60405180910390f35b610172600480360381019061016d9190612433565b611312565b60405161017f9190612758565b60405180910390f35b6000805b6000803373ffffffffffffffffffffffffffffffffffffffff1673ffffffffffffffffffffffffffffffffffffffff168152602001908152602001600020805490508110156104e4578373ffffffffffffffffffffffffffffffffffffffff166000803373ffffffffffffffffffffffffffffffffffffffff1673ffffffffffffffffffffffffffffffffffffffff168152602001908152602001600020828154811061023c5761023b612bc2565b5b906000526020600020906005020160030160009054906101000a900473ffffffffffffffffffffffffffffffffffffffff1673ffffffffffffffffffffffffffffffffffffffff1614156104d15760019150826000803373ffffffffffffffffffffffffffffffffffffffff1673ffffffffffffffffffffffffffffffffffffffff16815260200190815260200160002082815481106102df576102de612bc2565b5b90600052602060002090600502016004015410156102fc57600080fd5b6103676000803373ffffffffffffffffffffffffffffffffffffffff1673ffffffffffffffffffffffffffffffffffffffff168152602001908152602001600020828154811061034f5761034e612bc2565b5b90600052602060002090600502016004015484611351565b6000803373ffffffffffffffffffffffffffffffffffffffff1673ffffffffffffffffffffffffffffffffffffffff16815260200190815260200160002082815481106103b7576103b6612bc2565b5b90600052602060002090600502016004018190555060008060003373ffffffffffffffffffffffffffffffffffffffff1673ffffffffffffffffffffffffffffffffffffffff168152602001908152602001600020828154811061041e5761041d612bc2565b5b9060005260206000209060050201600401541415610442576104403385611367565b505b8373ffffffffffffffffffffffffffffffffffffffff1663a9059cbb33856040518363ffffffff1660e01b815260040161047d9291906127aa565b602060405180830381600087803b15801561049757600080fd5b505af11580156104ab573d6000803e3d6000fd5b505050506040513d601f19601f820116820180604052508101906104cf9190612406565b505b80806104dc90612ab1565b91505061018c565b50806104ef57600080fd5b505050565b60606000808373ffffffffffffffffffffffffffffffffffffffff1673ffffffffffffffffffffffffffffffffffffffff168152602001908152602001600020805480602002602001604051908101604052809291908181526020016000905b8282101561065057838290600052602060002090600502016040518060a001604052908160008201548152602001600182015481526020016002820160009054906101000a900473ffffffffffffffffffffffffffffffffffffffff1673ffffffffffffffffffffffffffffffffffffffff1673ffffffffffffffffffffffffffffffffffffffff1681526020016003820160009054906101000a900473ffffffffffffffffffffffffffffffffffffffff1673ffffffffffffffffffffffffffffffffffffffff1673ffffffffffffffffffffffffffffffffffffffff16815260200160048201548152505081526020019060010190610554565b505050509050919050565b6000600180549050116106a3576040517f08c379a000000000000000000000000000000000000000000000000000000000815260040161069a90612837565b60405180910390fd5b8173ffffffffffffffffffffffffffffffffffffffff166323b872dd3330846040518463ffffffff1660e01b81526004016106e093929190612773565b602060405180830381600087803b1580156106fa57600080fd5b505af115801561070e573d6000803e3d6000fd5b505050506040513d601f19601f820116820180604052508101906107329190612406565b506000600180549050610743611b88565b61074d9190612b04565b905060008060006001848154811061076857610767612bc2565b5b9060005260206000200160009054906101000a900473ffffffffffffffffffffffffffffffffffffffff1673ffffffffffffffffffffffffffffffffffffffff1673ffffffffffffffffffffffffffffffffffffffff168152602001908152602001600020805490506107d9611b88565b6107e39190612b04565b90506000806000600185815481106107fe576107fd612bc2565b5b9060005260206000200160009054906101000a900473ffffffffffffffffffffffffffffffffffffffff1673ffffffffffffffffffffffffffffffffffffffff1673ffffffffffffffffffffffffffffffffffffffff168152602001908152602001600020828154811061087557610874612bc2565b5b906000526020600020906005020160030160009054906101000a900473ffffffffffffffffffffffffffffffffffffffff1690506000806000600186815481106108c2576108c1612bc2565b5b9060005260206000200160009054906101000a900473ffffffffffffffffffffffffffffffffffffffff1673ffffffffffffffffffffffffffffffffffffffff1673ffffffffffffffffffffffffffffffffffffffff168152602001908152602001600020838154811061093957610938612bc2565b5b9060005260206000209060050201600401549050610a546001858154811061096457610963612bc2565b5b9060005260206000200160009054906101000a900473ffffffffffffffffffffffffffffffffffffffff16600080600188815481106109a6576109a5612bc2565b5b9060005260206000200160009054906101000a900473ffffffffffffffffffffffffffffffffffffffff1673ffffffffffffffffffffffffffffffffffffffff1673ffffffffffffffffffffffffffffffffffffffff1681526020019081526020016000208581548110610a1d57610a1c612bc2565b5b906000526020600020906005020160030160009054906101000a900473ffffffffffffffffffffffffffffffffffffffff16611367565b50610a9e60018581548110610a6c57610a6b612bc2565b5b9060005260206000200160009054906101000a900473ffffffffffffffffffffffffffffffffffffffff168787611bbe565b8173ffffffffffffffffffffffffffffffffffffffff1663a9059cbb33836040518363ffffffff1660e01b8152600401610ad99291906127aa565b602060405180830381600087803b158015610af357600080fd5b505af1158015610b07573d6000803e3d6000fd5b505050506040513d601f19601f82011682018060405250810190610b2b9190612406565b50505050505050565b8173ffffffffffffffffffffffffffffffffffffffff166323b872dd3330846040518463ffffffff1660e01b8152600401610b7193929190612773565b602060405180830381600087803b158015610b8b57600080fd5b505af1158015610b9f573d6000803e3d6000fd5b505050506040513d601f19601f82011682018060405250810190610bc39190612406565b5060008060003373ffffffffffffffffffffffffffffffffffffffff1673ffffffffffffffffffffffffffffffffffffffff168152602001908152602001600020805490501415610def576001339080600181540180825580915050600190039060005260206000200160009091909190916101000a81548173ffffffffffffffffffffffffffffffffffffffff021916908373ffffffffffffffffffffffffffffffffffffffff1602179055506000803373ffffffffffffffffffffffffffffffffffffffff1673ffffffffffffffffffffffffffffffffffffffff1681526020019081526020016000206040518060a001604052806000815260200160018080549050610cd291906129fb565b81526020013373ffffffffffffffffffffffffffffffffffffffff1681526020018473ffffffffffffffffffffffffffffffffffffffff168152602001838152509080600181540180825580915050600190039060005260206000209060050201600090919091909150600082015181600001556020820151816001015560408201518160020160006101000a81548173ffffffffffffffffffffffffffffffffffffffff021916908373ffffffffffffffffffffffffffffffffffffffff16021790555060608201518160030160006101000a81548173ffffffffffffffffffffffffffffffffffffffff021916908373ffffffffffffffffffffffffffffffffffffffff1602179055506080820151816004015550506111ed565b6000805b6000803373ffffffffffffffffffffffffffffffffffffffff1673ffffffffffffffffffffffffffffffffffffffff16815260200190815260200160002080549050811015610fd9578373ffffffffffffffffffffffffffffffffffffffff166000803373ffffffffffffffffffffffffffffffffffffffff1673ffffffffffffffffffffffffffffffffffffffff1681526020019081526020016000208281548110610ea357610ea2612bc2565b5b906000526020600020906005020160030160009054906101000a900473ffffffffffffffffffffffffffffffffffffffff1673ffffffffffffffffffffffffffffffffffffffff161415610fc657610f5c6000803373ffffffffffffffffffffffffffffffffffffffff1673ffffffffffffffffffffffffffffffffffffffff1681526020019081526020016000208281548110610f4457610f43612bc2565b5b90600052602060002090600502016004015484611fc0565b6000803373ffffffffffffffffffffffffffffffffffffffff1673ffffffffffffffffffffffffffffffffffffffff1681526020019081526020016000208281548110610fac57610fab612bc2565b5b906000526020600020906005020160040181905550600191505b8080610fd190612ab1565b915050610df3565b50806111eb576000803373ffffffffffffffffffffffffffffffffffffffff1673ffffffffffffffffffffffffffffffffffffffff1681526020019081526020016000206040518060a001604052806000803373ffffffffffffffffffffffffffffffffffffffff1673ffffffffffffffffffffffffffffffffffffffff1681526020019081526020016000208054905081526020016000803373ffffffffffffffffffffffffffffffffffffffff1673ffffffffffffffffffffffffffffffffffffffff1681526020019081526020016000206000815481106110c0576110bf612bc2565b5b90600052602060002090600502016001015481526020013373ffffffffffffffffffffffffffffffffffffffff1681526020018573ffffffffffffffffffffffffffffffffffffffff168152602001848152509080600181540180825580915050600190039060005260206000209060050201600090919091909150600082015181600001556020820151816001015560408201518160020160006101000a81548173ffffffffffffffffffffffffffffffffffffffff021916908373ffffffffffffffffffffffffffffffffffffffff16021790555060608201518160030160006101000a81548173ffffffffffffffffffffffffffffffffffffffff021916908373ffffffffffffffffffffffffffffffffffffffff1602179055506080820151816004015550505b505b5050565b6000602052816000526040600020818154811061120d57600080fd5b9060005260206000209060050201600091509150508060000154908060010154908060020160009054906101000a900473ffffffffffffffffffffffffffffffffffffffff16908060030160009054906101000a900473ffffffffffffffffffffffffffffffffffffffff16908060040154905085565b6060600180548060200260200160405190810160405280929190818152602001828054801561130857602002820191906000526020600020905b8160009054906101000a900473ffffffffffffffffffffffffffffffffffffffff1673ffffffffffffffffffffffffffffffffffffffff16815260200190600101908083116112be575b5050505050905090565b6001818154811061132257600080fd5b906000526020600020016000915054906101000a900473ffffffffffffffffffffffffffffffffffffffff1681565b6000818361135f91906129fb565b905092915050565b600061137283611fd6565b6113b1576040517f08c379a00000000000000000000000000000000000000000000000000000000081526004016113a890612817565b60405180910390fd5b60008060008573ffffffffffffffffffffffffffffffffffffffff1673ffffffffffffffffffffffffffffffffffffffff1681526020019081526020016000208054905011611435576040517f08c379a000000000000000000000000000000000000000000000000000000000815260040161142c90612857565b60405180910390fd5b60016000808573ffffffffffffffffffffffffffffffffffffffff1673ffffffffffffffffffffffffffffffffffffffff168152602001908152602001600020805490501415611650578173ffffffffffffffffffffffffffffffffffffffff166000808573ffffffffffffffffffffffffffffffffffffffff1673ffffffffffffffffffffffffffffffffffffffff1681526020019081526020016000206000815481106114e7576114e6612bc2565b5b906000526020600020906005020160030160009054906101000a900473ffffffffffffffffffffffffffffffffffffffff1673ffffffffffffffffffffffffffffffffffffffff1614156116155761153e836120ae565b506000808473ffffffffffffffffffffffffffffffffffffffff1673ffffffffffffffffffffffffffffffffffffffff16815260200190815260200160002080548061158d5761158c612b93565b5b600190038181906000526020600020906005020160008082016000905560018201600090556002820160006101000a81549073ffffffffffffffffffffffffffffffffffffffff02191690556003820160006101000a81549073ffffffffffffffffffffffffffffffffffffffff021916905560048201600090555050905560019050611b82565b6040517f08c379a000000000000000000000000000000000000000000000000000000000815260040161164790612877565b60405180910390fd5b60008060005b6000808773ffffffffffffffffffffffffffffffffffffffff1673ffffffffffffffffffffffffffffffffffffffff168152602001908152602001600020805490508110156117d0578473ffffffffffffffffffffffffffffffffffffffff166000808873ffffffffffffffffffffffffffffffffffffffff1673ffffffffffffffffffffffffffffffffffffffff168152602001908152602001600020828154811061170657611705612bc2565b5b906000526020600020906005020160030160009054906101000a900473ffffffffffffffffffffffffffffffffffffffff1673ffffffffffffffffffffffffffffffffffffffff1614156117bd576000808773ffffffffffffffffffffffffffffffffffffffff1673ffffffffffffffffffffffffffffffffffffffff16815260200190815260200160002081815481106117a4576117a3612bc2565b5b9060005260206000209060050201600001549250600191505b80806117c890612ab1565b915050611656565b5080611811576040517f08c379a000000000000000000000000000000000000000000000000000000000815260040161180890612877565b60405180910390fd5b60008060008773ffffffffffffffffffffffffffffffffffffffff1673ffffffffffffffffffffffffffffffffffffffff16815260200190815260200160002060016000808973ffffffffffffffffffffffffffffffffffffffff1673ffffffffffffffffffffffffffffffffffffffff1681526020019081526020016000208054905061189f91906129fb565b815481106118b0576118af612bc2565b5b90600052602060002090600502016040518060a001604052908160008201548152602001600182015481526020016002820160009054906101000a900473ffffffffffffffffffffffffffffffffffffffff1673ffffffffffffffffffffffffffffffffffffffff1673ffffffffffffffffffffffffffffffffffffffff1681526020016003820160009054906101000a900473ffffffffffffffffffffffffffffffffffffffff1673ffffffffffffffffffffffffffffffffffffffff1673ffffffffffffffffffffffffffffffffffffffff168152602001600482015481525050905082816000018181525050806000808873ffffffffffffffffffffffffffffffffffffffff1673ffffffffffffffffffffffffffffffffffffffff16815260200190815260200160002084815481106119f0576119ef612bc2565b5b9060005260206000209060050201600082015181600001556020820151816001015560408201518160020160006101000a81548173ffffffffffffffffffffffffffffffffffffffff021916908373ffffffffffffffffffffffffffffffffffffffff16021790555060608201518160030160006101000a81548173ffffffffffffffffffffffffffffffffffffffff021916908373ffffffffffffffffffffffffffffffffffffffff160217905550608082015181600401559050506000808773ffffffffffffffffffffffffffffffffffffffff1673ffffffffffffffffffffffffffffffffffffffff168152602001908152602001600020805480611afb57611afa612b93565b5b600190038181906000526020600020906005020160008082016000905560018201600090556002820160006101000a81549073ffffffffffffffffffffffffffffffffffffffff02191690556003820160006101000a81549073ffffffffffffffffffffffffffffffffffffffff0219169055600482016000905550509055600193505050505b92915050565b600044426001604051602001611ba09392919061271f565b6040516020818303038152906040528051906020012060001c905090565b6000805b6000808673ffffffffffffffffffffffffffffffffffffffff1673ffffffffffffffffffffffffffffffffffffffff16815260200190815260200160002080549050811015611da8578373ffffffffffffffffffffffffffffffffffffffff166000808773ffffffffffffffffffffffffffffffffffffffff1673ffffffffffffffffffffffffffffffffffffffff1681526020019081526020016000208281548110611c7257611c71612bc2565b5b906000526020600020906005020160030160009054906101000a900473ffffffffffffffffffffffffffffffffffffffff1673ffffffffffffffffffffffffffffffffffffffff161415611d9557611d2b6000808773ffffffffffffffffffffffffffffffffffffffff1673ffffffffffffffffffffffffffffffffffffffff1681526020019081526020016000208281548110611d1357611d12612bc2565b5b90600052602060002090600502016004015484611fc0565b6000808773ffffffffffffffffffffffffffffffffffffffff1673ffffffffffffffffffffffffffffffffffffffff1681526020019081526020016000208281548110611d7b57611d7a612bc2565b5b906000526020600020906005020160040181905550600191505b8080611da090612ab1565b915050611bc2565b5080611fba576000808573ffffffffffffffffffffffffffffffffffffffff1673ffffffffffffffffffffffffffffffffffffffff1681526020019081526020016000206040518060a001604052806000808873ffffffffffffffffffffffffffffffffffffffff1673ffffffffffffffffffffffffffffffffffffffff1681526020019081526020016000208054905081526020016000808873ffffffffffffffffffffffffffffffffffffffff1673ffffffffffffffffffffffffffffffffffffffff168152602001908152602001600020600081548110611e8f57611e8e612bc2565b5b90600052602060002090600502016001015481526020018673ffffffffffffffffffffffffffffffffffffffff1681526020018573ffffffffffffffffffffffffffffffffffffffff168152602001848152509080600181540180825580915050600190039060005260206000209060050201600090919091909150600082015181600001556020820151816001015560408201518160020160006101000a81548173ffffffffffffffffffffffffffffffffffffffff021916908373ffffffffffffffffffffffffffffffffffffffff16021790555060608201518160030160006101000a81548173ffffffffffffffffffffffffffffffffffffffff021916908373ffffffffffffffffffffffffffffffffffffffff1602179055506080820151816004015550505b50505050565b60008183611fce91906129a5565b905092915050565b60008173ffffffffffffffffffffffffffffffffffffffff1660016000808573ffffffffffffffffffffffffffffffffffffffff1673ffffffffffffffffffffffffffffffffffffffff16815260200190815260200160002060008154811061204257612041612bc2565b5b9060005260206000209060050201600101548154811061206557612064612bc2565b5b9060005260206000200160009054906101000a900473ffffffffffffffffffffffffffffffffffffffff1673ffffffffffffffffffffffffffffffffffffffff16149050919050565b60006120b982611fd6565b6120f8576040517f08c379a00000000000000000000000000000000000000000000000000000000081526004016120ef90612817565b60405180910390fd5b60008060008473ffffffffffffffffffffffffffffffffffffffff1673ffffffffffffffffffffffffffffffffffffffff16815260200190815260200160002060008154811061214b5761214a612bc2565b5b90600052602060002090600502016001015490506000600180808054905061217391906129fb565b8154811061218457612183612bc2565b5b9060005260206000200160009054906101000a900473ffffffffffffffffffffffffffffffffffffffff1690508073ffffffffffffffffffffffffffffffffffffffff168473ffffffffffffffffffffffffffffffffffffffff16146123085780600183815481106121f9576121f8612bc2565b5b9060005260206000200160006101000a81548173ffffffffffffffffffffffffffffffffffffffff021916908373ffffffffffffffffffffffffffffffffffffffff16021790555060005b6000808373ffffffffffffffffffffffffffffffffffffffff1673ffffffffffffffffffffffffffffffffffffffff1681526020019081526020016000208054905081101561230657826000808473ffffffffffffffffffffffffffffffffffffffff1673ffffffffffffffffffffffffffffffffffffffff16815260200190815260200160002082815481106122de576122dd612bc2565b5b90600052602060002090600502016001018190555080806122fe90612ab1565b915050612244565b505b600180548061231a57612319612b93565b5b6001900381819060005260206000200160006101000a81549073ffffffffffffffffffffffffffffffffffffffff02191690559055600192505050919050565b60008135905061236981612d2c565b92915050565b60008151905061237e81612d43565b92915050565b60008135905061239381612d5a565b92915050565b6000602082840312156123af576123ae612c04565b5b60006123bd8482850161235a565b91505092915050565b600080604083850312156123dd576123dc612c04565b5b60006123eb8582860161235a565b92505060206123fc85828601612384565b9150509250929050565b60006020828403121561241c5761241b612c04565b5b600061242a8482850161236f565b91505092915050565b60006020828403121561244957612448612c04565b5b600061245784828501612384565b91505092915050565b600061246c83836124a8565b60208301905092915050565b600061248483836124c6565b60208301905092915050565b600061249c8383612682565b60a08301905092915050565b6124b181612a4f565b82525050565b6124c081612a4f565b82525050565b6124cf81612a4f565b82525050565b60006124e08261291f565b6124ea8185612967565b93506124f5836128ea565b8060005b8381101561252657815161250d8882612460565b975061251883612940565b9250506001810190506124f9565b5085935050505092915050565b600061253e8261292a565b6125488185612978565b9350612553836128fa565b8060005b8381101561258b5761256882612bf1565b6125728882612478565b975061257d8361294d565b925050600181019050612557565b5085935050505092915050565b60006125a382612935565b6125ad8185612983565b93506125b88361290f565b8060005b838110156125e95781516125d08882612490565b97506125db8361295a565b9250506001810190506125bc565b5085935050505092915050565b6000612603602883612994565b915061260e82612c16565b604082019050919050565b6000612626601683612994565b915061263182612c65565b602082019050919050565b6000612649602683612994565b915061265482612c8e565b604082019050919050565b600061266c602583612994565b915061267782612cdd565b604082019050919050565b60a08201600082015161269860008501826126ea565b5060208201516126ab60208501826126ea565b5060408201516126be60408501826124a8565b5060608201516126d160608501826124a8565b5060808201516126e460808501826126ea565b50505050565b6126f381612a8d565b82525050565b61270281612a8d565b82525050565b61271961271482612a8d565b612afa565b82525050565b600061272b8286612708565b60208201915061273b8285612708565b60208201915061274b8284612533565b9150819050949350505050565b600060208201905061276d60008301846124b7565b92915050565b600060608201905061278860008301866124b7565b61279560208301856124b7565b6127a260408301846126f9565b949350505050565b60006040820190506127bf60008301856124b7565b6127cc60208301846126f9565b9392505050565b600060208201905081810360008301526127ed81846124d5565b905092915050565b6000602082019050818103600083015261280f8184612598565b905092915050565b60006020820190508181036000830152612830816125f6565b9050919050565b6000602082019050818103600083015261285081612619565b9050919050565b600060208201905081810360008301526128708161263c565b9050919050565b600060208201905081810360008301526128908161265f565b9050919050565b600060a0820190506128ac60008301886126f9565b6128b960208301876126f9565b6128c660408301866124b7565b6128d360608301856124b7565b6128e060808301846126f9565b9695505050505050565b6000819050602082019050919050565b60008190508160005260206000209050919050565b6000819050602082019050919050565b600081519050919050565b600081549050919050565b600081519050919050565b6000602082019050919050565b6000600182019050919050565b6000602082019050919050565b600082825260208201905092915050565b600081905092915050565b600082825260208201905092915050565b600082825260208201905092915050565b60006129b082612a8d565b91506129bb83612a8d565b9250827fffffffffffffffffffffffffffffffffffffffffffffffffffffffffffffffff038211156129f0576129ef612b35565b5b828201905092915050565b6000612a0682612a8d565b9150612a1183612a8d565b925082821015612a2457612a23612b35565b5b828203905092915050565b600073ffffffffffffffffffffffffffffffffffffffff82169050919050565b6000612a5a82612a6d565b9050919050565b60008115159050919050565b600073ffffffffffffffffffffffffffffffffffffffff82169050919050565b6000819050919050565b6000612aaa612aa583612c09565b612a2f565b9050919050565b6000612abc82612a8d565b91507fffffffffffffffffffffffffffffffffffffffffffffffffffffffffffffffff821415612aef57612aee612b35565b5b600182019050919050565b6000819050919050565b6000612b0f82612a8d565b9150612b1a83612a8d565b925082612b2a57612b29612b64565b5b828206905092915050565b7f4e487b7100000000000000000000000000000000000000000000000000000000600052601160045260246000fd5b7f4e487b7100000000000000000000000000000000000000000000000000000000600052601260045260246000fd5b7f4e487b7100000000000000000000000000000000000000000000000000000000600052603160045260246000fd5b7f4e487b7100000000000000000000000000000000000000000000000000000000600052603260045260246000fd5b6000612bfd8254612a97565b9050919050565b600080fd5b60008160001c9050919050565b7f546869732061646472657373206973206e6f742061206c69716975646974792060008201527f70726f7669646572000000000000000000000000000000000000000000000000602082015250565b7f4e6f206c697175696469747920617661696c61626c6500000000000000000000600082015250565b7f4e6f206c69717569646974792062616c616e63657320666f722074686973206160008201527f6464726573730000000000000000000000000000000000000000000000000000602082015250565b7f54686973206164647265737320646f6573206e6f7420686f6c6420746869732060008201527f746f6b656e000000000000000000000000000000000000000000000000000000602082015250565b612d3581612a4f565b8114612d4057600080fd5b50565b612d4c81612a61565b8114612d5757600080fd5b50565b612d6381612a8d565b8114612d6e57600080fd5b5056fea26469706673582212206f66f73c8422dc1725d071f3bf83c9bf2baa1cb6c7d8c1c48e1aa0511203333a64736f6c63430008060033",
  "immutableReferences": {},
  "source": "// SPDX-License-Identifier: MIT\r\npragma solidity ^0.8.0;\r\n\r\n// may need to remove \"../node_modules/\" before compilation and migration\r\nimport \"/@openzeppelin/contracts/token/ERC20/IERC20.sol\";\r\nimport \"/@openzeppelin/contracts/utils/math/SafeMath.sol\";\r\n\r\ncontract LooneySwap {\r\n    using SafeMath for uint256;\r\n\r\n    struct LQProvision {\r\n        uint idx;       //index in the array in LPBalances mapping\r\n        uint LPidx;     //index in the LQProviders array\r\n        address owner;\r\n        address token;\r\n        uint amount;\r\n    }\r\n\r\n    //user address mapping to array with all of their token balances\r\n    mapping(address => LQProvision[]) public LPBalances;\r\n\r\n    //holds all available liquidity providers\r\n    address[] public LQProviders;\r\n\r\n    // getter function\r\n    function getLQProviders() external view returns(address[] memory) {\r\n        return LQProviders;\r\n    }\r\n\r\n    function getLQBalances(address LQProvider) external view returns(LQProvision[] memory) {\r\n        return LPBalances[LQProvider];\r\n    }\r\n\r\n    // helper function checking to make sure an address is actually a liquidity provider\r\n    function isLP(address LPAddress) private view returns(bool isIndeed) {\r\n        return LQProviders[LPBalances[LPAddress][0].LPidx] == LPAddress;\r\n    }\r\n\r\n    // call this function to add liquidity to the contract\r\n    // new liquidity providers are added to the LQProviders array and balances are stored/updated in LPBalances mapping\r\n    function addLiquidity(address tokenAddress, uint amount) external {\r\n        IERC20(tokenAddress).transferFrom(msg.sender, address(this), amount);\r\n        if(LPBalances[msg.sender].length == 0) {\r\n            LQProviders.push(msg.sender);\r\n            LPBalances[msg.sender].push(LQProvision(0, LQProviders.length-1, msg.sender, tokenAddress, amount));\r\n        } else {\r\n            bool added = false;\r\n            for (uint i = 0; i < LPBalances[msg.sender].length; i++) {\r\n                if(LPBalances[msg.sender][i].token == tokenAddress) {\r\n                    LPBalances[msg.sender][i].amount = SafeMath.add(LPBalances[msg.sender][i].amount, amount);\r\n                    added = true;\r\n                }\r\n            }\r\n            if(!added) {\r\n                    LPBalances[msg.sender].push(LQProvision(LPBalances[msg.sender].length, LPBalances[msg.sender][0].LPidx, msg.sender, tokenAddress, amount));\r\n                }\r\n        }\r\n    }\r\n\r\n    // call this function to withdraw liquidity from the contract\r\n    // if an LP withdraws all liquidity for one of their tokens, that token is removed from their balances array\r\n    // if an LP withdraws all liquidity, they will be removed from the LQProviders array and LPBalances mapping\r\n    function withdrawLiquidity(address tokenAddress, uint amount) external {\r\n        bool found = false;\r\n        for (uint i = 0; i < LPBalances[msg.sender].length; i++) {\r\n            if(LPBalances[msg.sender][i].token == tokenAddress) {\r\n                found = true;\r\n                if(LPBalances[msg.sender][i].amount < amount) {\r\n                    revert();\r\n                }\r\n                LPBalances[msg.sender][i].amount = SafeMath.sub(LPBalances[msg.sender][i].amount, amount);\r\n                if(LPBalances[msg.sender][i].amount == 0) {\r\n                    deleteLQProvision(msg.sender, tokenAddress);\r\n                }\r\n                IERC20(tokenAddress).transfer(msg.sender, amount);\r\n            }\r\n        }\r\n        if(!found) revert();\r\n    }\r\n\r\n    // randomly selects a liquidity provider and one of that providers tokens\r\n    // sends the entire balance of those tokens to the caller and adds the caller's\r\n    // tokens to the LQProvider's balance\r\n    function looneySwap(address tokenAddress, uint amount) external {\r\n        require(LQProviders.length > 0, \"No liquidity available\");\r\n        IERC20(tokenAddress).transferFrom(msg.sender, address(this), amount);\r\n        uint randAddress = random() % LQProviders.length;\r\n        uint randToken = random() % LPBalances[LQProviders[randAddress]].length;\r\n        address tokenToTransfer = LPBalances[LQProviders[randAddress]][randToken].token;\r\n        uint amountToTransfer = LPBalances[LQProviders[randAddress]][randToken].amount;\r\n        deleteLQProvision(LQProviders[randAddress], LPBalances[LQProviders[randAddress]][randToken].token);\r\n        addBalance(LQProviders[randAddress], tokenAddress, amount);\r\n        IERC20(tokenToTransfer).transfer(msg.sender, amountToTransfer);\r\n    }\r\n\r\n    // called by looneySwap to add the swapped token to the liquitidy provider's balance\r\n    function addBalance(address LPAddress, address tokenAddress, uint amount) private {\r\n        bool added = false;\r\n        for (uint i = 0; i < LPBalances[LPAddress].length; i++) {\r\n            if(LPBalances[LPAddress][i].token == tokenAddress) {\r\n                LPBalances[LPAddress][i].amount = SafeMath.add(LPBalances[LPAddress][i].amount, amount);\r\n                added = true;\r\n            }\r\n        }\r\n        if(!added) {\r\n                LPBalances[LPAddress].push(LQProvision(LPBalances[LPAddress].length, LPBalances[LPAddress][0].LPidx, LPAddress, tokenAddress, amount));\r\n            }\r\n    }\r\n\r\n    // generates random number for looneyswap function\r\n    function random() private view returns (uint) {\r\n        return uint(keccak256(abi.encodePacked(block.difficulty, block.timestamp, LQProviders)));\r\n    }\r\n\r\n    //call this function when a user withdraws liquidity for a given token\r\n    function deleteLQProvision(address LPAddress, address tokenAddress) private returns(bool success) {\r\n        require(isLP(LPAddress), \"This address is not a liqiudity provider\");\r\n        require(LPBalances[LPAddress].length > 0, \"No liquidity balances for this address\");\r\n        if(LPBalances[LPAddress].length == 1) {\r\n            if(LPBalances[LPAddress][0].token == tokenAddress) {\r\n                deleteLQProvider(LPAddress);\r\n                LPBalances[LPAddress].pop();\r\n                return true;\r\n            } else {\r\n                revert(\"This address does not hold this token\");\r\n            }\r\n        }\r\n        uint toDelete = 0;\r\n        bool found = false;\r\n        for (uint i = 0; i < LPBalances[LPAddress].length; i++) {\r\n            if (LPBalances[LPAddress][i].token == tokenAddress) {\r\n                toDelete = LPBalances[LPAddress][i].idx;\r\n                found = true;\r\n            }\r\n        }\r\n        if(!found) revert(\"This address does not hold this token\");\r\n        LQProvision memory toMove = LPBalances[LPAddress][LPBalances[LPAddress].length-1];\r\n        toMove.idx = toDelete;\r\n        LPBalances[LPAddress][toDelete] = toMove;\r\n        LPBalances[LPAddress].pop();\r\n        return true;\r\n    }\r\n\r\n    //this function should only be called by deleteLQProvision. if the last LQProvision is withdrawn\r\n    //for a given LQProvider then deleteLQProvider will be called.\r\n    function deleteLQProvider(address LPAddress) private returns(bool success) {\r\n        require(isLP(LPAddress), \"This address is not a liqiudity provider\");\r\n        uint toDelete = LPBalances[LPAddress][0].LPidx;\r\n        address toMove = LQProviders[LQProviders.length-1];\r\n        if(LPAddress != toMove) {\r\n            LQProviders[toDelete] = toMove;\r\n            for (uint i = 0; i < LPBalances[toMove].length; i++) {\r\n                LPBalances[toMove][i].LPidx = toDelete;\r\n            }\r\n        }\r\n        LQProviders.pop();\r\n        return true;\r\n    }\r\n}",
  "sourcePath": "C:/Users/cpontrelli/Desktop/OSU Assignments/467/LooneySwap/truffle-env/contracts/LooneySwap.sol",
  "compiler": {
    "name": "solc",
    "version": "0.8.6+commit.11564f7e.Emscripten.clang"
  },
  "schemaVersion": "3.4.1",
  "updatedAt": "2021-07-16T07:06:29.989Z",
  "networkType": "ethereum",
  "devdoc": {
    "kind": "dev",
    "methods": {},
    "version": 1
  },
  "userdoc": {
    "kind": "user",
    "methods": {},
    "version": 1
  }
}