{
  "contractName": "LooneySwap",
  "abi": [
    {
      "inputs": [
        {
          "internalType": "address",
          "name": "",
          "type": "address"
        },
        {
          "internalType": "uint256",
          "name": "",
          "type": "uint256"
        }
      ],
      "name": "LPBalances",
      "outputs": [
        {
          "internalType": "uint256",
          "name": "idx",
          "type": "uint256"
        },
        {
          "internalType": "uint256",
          "name": "LPidx",
          "type": "uint256"
        },
        {
          "internalType": "address",
          "name": "owner",
          "type": "address"
        },
        {
          "internalType": "address",
          "name": "token",
          "type": "address"
        },
        {
          "internalType": "uint256",
          "name": "amount",
          "type": "uint256"
        }
      ],
      "stateMutability": "view",
      "type": "function",
      "constant": true
    },
    {
      "inputs": [
        {
          "internalType": "address",
          "name": "tokenAddress",
          "type": "address"
        },
        {
          "internalType": "uint256",
          "name": "amount",
          "type": "uint256"
        }
      ],
      "name": "addLiquidity",
      "outputs": [],
      "stateMutability": "nonpayable",
      "type": "function"
    },
    {
      "inputs": [
        {
          "internalType": "address",
          "name": "tokenAddress",
          "type": "address"
        },
        {
          "internalType": "uint256",
          "name": "amount",
          "type": "uint256"
        }
      ],
      "name": "withdrawLiquidity",
      "outputs": [],
      "stateMutability": "nonpayable",
      "type": "function"
    },
    {
      "inputs": [
        {
          "internalType": "address",
          "name": "tokenAddress",
          "type": "address"
        },
        {
          "internalType": "uint256",
          "name": "amount",
          "type": "uint256"
        }
      ],
      "name": "looneySwap",
      "outputs": [],
      "stateMutability": "nonpayable",
      "type": "function"
    }
  ],
  "bytecode": "0x608060405234801561001057600080fd5b50612032806100206000396000f3fe608060405234801561001057600080fd5b506004361061004c5760003560e01c806306d47de914610051578063555470111461006d5780635668870014610089578063c42ac4f9146100a5575b600080fd5b61006b60048036038101906100669190611af4565b6100d9565b005b61008760048036038101906100829190611af4565b61046b565b005b6100a3600480360381019061009e9190611af4565b61092d565b005b6100bf60048036038101906100ba9190611af4565b610f49565b6040516100d0959493929190611cbb565b60405180910390f35b6000805b6000803373ffffffffffffffffffffffffffffffffffffffff1673ffffffffffffffffffffffffffffffffffffffff1681526020019081526020016000208054905081101561045b578373ffffffffffffffffffffffffffffffffffffffff166000803373ffffffffffffffffffffffffffffffffffffffff1673ffffffffffffffffffffffffffffffffffffffff168152602001908152602001600020828154811061018d5761018c611f63565b5b906000526020600020906005020160030160009054906101000a900473ffffffffffffffffffffffffffffffffffffffff1673ffffffffffffffffffffffffffffffffffffffff1614156104485760019150826000803373ffffffffffffffffffffffffffffffffffffffff1673ffffffffffffffffffffffffffffffffffffffff16815260200190815260200160002082815481106102305761022f611f63565b5b906000526020600020906005020160040154101561024d57600080fd5b6102c1836000803373ffffffffffffffffffffffffffffffffffffffff1673ffffffffffffffffffffffffffffffffffffffff16815260200190815260200160002083815481106102a1576102a0611f63565b5b906000526020600020906005020160040154610fdc90919063ffffffff16565b5060008060003373ffffffffffffffffffffffffffffffffffffffff1673ffffffffffffffffffffffffffffffffffffffff168152602001908152602001600020828154811061031457610313611f63565b5b9060005260206000209060050201600401541415610338576103363385610ff2565b505b6000803373ffffffffffffffffffffffffffffffffffffffff1673ffffffffffffffffffffffffffffffffffffffff168152602001908152602001600020818154811061038857610387611f63565b5b906000526020600020906005020160030160009054906101000a900473ffffffffffffffffffffffffffffffffffffffff1673ffffffffffffffffffffffffffffffffffffffff1663a9059cbb33856040518363ffffffff1660e01b81526004016103f4929190611c92565b602060405180830381600087803b15801561040e57600080fd5b505af1158015610422573d6000803e3d6000fd5b505050506040513d601f19601f820116820180604052508101906104469190611b34565b505b808061045390611e52565b9150506100dd565b508061046657600080fd5b505050565b8173ffffffffffffffffffffffffffffffffffffffff166323b872dd3330846040518463ffffffff1660e01b81526004016104a893929190611c5b565b602060405180830381600087803b1580156104c257600080fd5b505af11580156104d6573d6000803e3d6000fd5b505050506040513d601f19601f820116820180604052508101906104fa9190611b34565b50600060018054905061050b6116ae565b6105159190611ea5565b90506000806000600184815481106105305761052f611f63565b5b9060005260206000200160009054906101000a900473ffffffffffffffffffffffffffffffffffffffff1673ffffffffffffffffffffffffffffffffffffffff1673ffffffffffffffffffffffffffffffffffffffff168152602001908152602001600020805490506105a16116ae565b6105ab9190611ea5565b90506000806000600185815481106105c6576105c5611f63565b5b9060005260206000200160009054906101000a900473ffffffffffffffffffffffffffffffffffffffff1673ffffffffffffffffffffffffffffffffffffffff1673ffffffffffffffffffffffffffffffffffffffff168152602001908152602001600020828154811061063d5761063c611f63565b5b906000526020600020906005020160030160009054906101000a900473ffffffffffffffffffffffffffffffffffffffff16905060008060006001868154811061068a57610689611f63565b5b9060005260206000200160009054906101000a900473ffffffffffffffffffffffffffffffffffffffff1673ffffffffffffffffffffffffffffffffffffffff1673ffffffffffffffffffffffffffffffffffffffff168152602001908152602001600020838154811061070157610700611f63565b5b9060005260206000209060050201600401549050856000806001878154811061072d5761072c611f63565b5b9060005260206000200160009054906101000a900473ffffffffffffffffffffffffffffffffffffffff1673ffffffffffffffffffffffffffffffffffffffff1673ffffffffffffffffffffffffffffffffffffffff16815260200190815260200160002084815481106107a4576107a3611f63565b5b906000526020600020906005020160030160006101000a81548173ffffffffffffffffffffffffffffffffffffffff021916908373ffffffffffffffffffffffffffffffffffffffff160217905550846000806001878154811061080b5761080a611f63565b5b9060005260206000200160009054906101000a900473ffffffffffffffffffffffffffffffffffffffff1673ffffffffffffffffffffffffffffffffffffffff1673ffffffffffffffffffffffffffffffffffffffff168152602001908152602001600020848154811061088257610881611f63565b5b9060005260206000209060050201600401819055508173ffffffffffffffffffffffffffffffffffffffff1663a9059cbb33836040518363ffffffff1660e01b81526004016108d2929190611c92565b602060405180830381600087803b1580156108ec57600080fd5b505af1158015610900573d6000803e3d6000fd5b505050506040513d601f19601f820116820180604052508101906109249190611b34565b50505050505050565b8173ffffffffffffffffffffffffffffffffffffffff166323b872dd3330846040518463ffffffff1660e01b815260040161096a93929190611c5b565b602060405180830381600087803b15801561098457600080fd5b505af1158015610998573d6000803e3d6000fd5b505050506040513d601f19601f820116820180604052508101906109bc9190611b34565b5060008060003373ffffffffffffffffffffffffffffffffffffffff1673ffffffffffffffffffffffffffffffffffffffff168152602001908152602001600020805490501415610be8576001339080600181540180825580915050600190039060005260206000200160009091909190916101000a81548173ffffffffffffffffffffffffffffffffffffffff021916908373ffffffffffffffffffffffffffffffffffffffff1602179055506000803373ffffffffffffffffffffffffffffffffffffffff1673ffffffffffffffffffffffffffffffffffffffff1681526020019081526020016000206040518060a001604052806000815260200160018080549050610acb9190611d9c565b81526020013373ffffffffffffffffffffffffffffffffffffffff1681526020018473ffffffffffffffffffffffffffffffffffffffff168152602001838152509080600181540180825580915050600190039060005260206000209060050201600090919091909150600082015181600001556020820151816001015560408201518160020160006101000a81548173ffffffffffffffffffffffffffffffffffffffff021916908373ffffffffffffffffffffffffffffffffffffffff16021790555060608201518160030160006101000a81548173ffffffffffffffffffffffffffffffffffffffff021916908373ffffffffffffffffffffffffffffffffffffffff160217905550608082015181600401555050610f45565b6000805b6000803373ffffffffffffffffffffffffffffffffffffffff1673ffffffffffffffffffffffffffffffffffffffff16815260200190815260200160002080549050811015610f42578373ffffffffffffffffffffffffffffffffffffffff166000803373ffffffffffffffffffffffffffffffffffffffff1673ffffffffffffffffffffffffffffffffffffffff1681526020019081526020016000208281548110610c9c57610c9b611f63565b5b906000526020600020906005020160030160009054906101000a900473ffffffffffffffffffffffffffffffffffffffff1673ffffffffffffffffffffffffffffffffffffffff161415610d6457610d5e836000803373ffffffffffffffffffffffffffffffffffffffff1673ffffffffffffffffffffffffffffffffffffffff1681526020019081526020016000208381548110610d3e57610d3d611f63565b5b9060005260206000209060050201600401546116e490919063ffffffff16565b50600191505b81610f2f576000803373ffffffffffffffffffffffffffffffffffffffff1673ffffffffffffffffffffffffffffffffffffffff1681526020019081526020016000206040518060a0016040528060016000803373ffffffffffffffffffffffffffffffffffffffff1673ffffffffffffffffffffffffffffffffffffffff16815260200190815260200160002080549050610e009190611d9c565b815260200160018080549050610e169190611d9c565b81526020013373ffffffffffffffffffffffffffffffffffffffff1681526020018673ffffffffffffffffffffffffffffffffffffffff168152602001858152509080600181540180825580915050600190039060005260206000209060050201600090919091909150600082015181600001556020820151816001015560408201518160020160006101000a81548173ffffffffffffffffffffffffffffffffffffffff021916908373ffffffffffffffffffffffffffffffffffffffff16021790555060608201518160030160006101000a81548173ffffffffffffffffffffffffffffffffffffffff021916908373ffffffffffffffffffffffffffffffffffffffff1602179055506080820151816004015550505b8080610f3a90611e52565b915050610bec565b50505b5050565b60006020528160005260406000208181548110610f6557600080fd5b9060005260206000209060050201600091509150508060000154908060010154908060020160009054906101000a900473ffffffffffffffffffffffffffffffffffffffff16908060030160009054906101000a900473ffffffffffffffffffffffffffffffffffffffff16908060040154905085565b60008183610fea9190611d9c565b905092915050565b6000610ffd836116fa565b61100657600080fd5b60008060008573ffffffffffffffffffffffffffffffffffffffff1673ffffffffffffffffffffffffffffffffffffffff168152602001908152602001600020805490501161105457600080fd5b60016000808573ffffffffffffffffffffffffffffffffffffffff1673ffffffffffffffffffffffffffffffffffffffff168152602001908152602001600020805490501415611283578173ffffffffffffffffffffffffffffffffffffffff166000808573ffffffffffffffffffffffffffffffffffffffff1673ffffffffffffffffffffffffffffffffffffffff16815260200190815260200160002060008154811061110657611105611f63565b5b906000526020600020906005020160030160009054906101000a900473ffffffffffffffffffffffffffffffffffffffff1673ffffffffffffffffffffffffffffffffffffffff16141561127e5761115d836117d2565b506000808473ffffffffffffffffffffffffffffffffffffffff1673ffffffffffffffffffffffffffffffffffffffff1681526020019081526020016000208054806111ac576111ab611f34565b5b600190038181906000526020600020906005020160008082016000905560018201600090556002820160006101000a81549073ffffffffffffffffffffffffffffffffffffffff02191690556003820160006101000a81549073ffffffffffffffffffffffffffffffffffffffff02191690556004820160009055505090556000808473ffffffffffffffffffffffffffffffffffffffff1673ffffffffffffffffffffffffffffffffffffffff16815260200190815260200160002060006112759190611a14565b600190506116a8565b600080fd5b60008060005b6000808773ffffffffffffffffffffffffffffffffffffffff1673ffffffffffffffffffffffffffffffffffffffff16815260200190815260200160002080549050811015611403578473ffffffffffffffffffffffffffffffffffffffff166000808873ffffffffffffffffffffffffffffffffffffffff1673ffffffffffffffffffffffffffffffffffffffff168152602001908152602001600020828154811061133957611338611f63565b5b906000526020600020906005020160030160009054906101000a900473ffffffffffffffffffffffffffffffffffffffff1673ffffffffffffffffffffffffffffffffffffffff1614156113f0576000808773ffffffffffffffffffffffffffffffffffffffff1673ffffffffffffffffffffffffffffffffffffffff16815260200190815260200160002081815481106113d7576113d6611f63565b5b9060005260206000209060050201600001549250600191505b80806113fb90611e52565b915050611289565b508061140e57600080fd5b60008060008773ffffffffffffffffffffffffffffffffffffffff1673ffffffffffffffffffffffffffffffffffffffff16815260200190815260200160002060016000808973ffffffffffffffffffffffffffffffffffffffff1673ffffffffffffffffffffffffffffffffffffffff1681526020019081526020016000208054905061149c9190611d9c565b815481106114ad576114ac611f63565b5b90600052602060002090600502016040518060a001604052908160008201548152602001600182015481526020016002820160009054906101000a900473ffffffffffffffffffffffffffffffffffffffff1673ffffffffffffffffffffffffffffffffffffffff1673ffffffffffffffffffffffffffffffffffffffff1681526020016003820160009054906101000a900473ffffffffffffffffffffffffffffffffffffffff1673ffffffffffffffffffffffffffffffffffffffff1673ffffffffffffffffffffffffffffffffffffffff1681526020016004820154815250509050806000808873ffffffffffffffffffffffffffffffffffffffff1673ffffffffffffffffffffffffffffffffffffffff16815260200190815260200160002084815481106115e3576115e2611f63565b5b9060005260206000209060050201600082015181600001556020820151816001015560408201518160020160006101000a81548173ffffffffffffffffffffffffffffffffffffffff021916908373ffffffffffffffffffffffffffffffffffffffff16021790555060608201518160030160006101000a81548173ffffffffffffffffffffffffffffffffffffffff021916908373ffffffffffffffffffffffffffffffffffffffff16021790555060808201518160040155905050600193505050505b92915050565b6000444260016040516020016116c693929190611c22565b6040516020818303038152906040528051906020012060001c905090565b600081836116f29190611d46565b905092915050565b60008173ffffffffffffffffffffffffffffffffffffffff1660016000808573ffffffffffffffffffffffffffffffffffffffff1673ffffffffffffffffffffffffffffffffffffffff16815260200190815260200160002060008154811061176657611765611f63565b5b9060005260206000209060050201600101548154811061178957611788611f63565b5b9060005260206000200160009054906101000a900473ffffffffffffffffffffffffffffffffffffffff1673ffffffffffffffffffffffffffffffffffffffff16149050919050565b60006117dd826116fa565b6117e657600080fd5b60008060008473ffffffffffffffffffffffffffffffffffffffff1673ffffffffffffffffffffffffffffffffffffffff16815260200190815260200160002060008154811061183957611838611f63565b5b9060005260206000209060050201600101549050600060018080805490506118619190611d9c565b8154811061187257611871611f63565b5b9060005260206000200160009054906101000a900473ffffffffffffffffffffffffffffffffffffffff16905080600183815481106118b4576118b3611f63565b5b9060005260206000200160006101000a81548173ffffffffffffffffffffffffffffffffffffffff021916908373ffffffffffffffffffffffffffffffffffffffff16021790555060005b6000808373ffffffffffffffffffffffffffffffffffffffff1673ffffffffffffffffffffffffffffffffffffffff168152602001908152602001600020805490508110156119c157826000808473ffffffffffffffffffffffffffffffffffffffff1673ffffffffffffffffffffffffffffffffffffffff168152602001908152602001600020828154811061199957611998611f63565b5b90600052602060002090600502016001018190555080806119b990611e52565b9150506118ff565b5060018054806119d4576119d3611f34565b5b6001900381819060005260206000200160006101000a81549073ffffffffffffffffffffffffffffffffffffffff02191690559055600192505050919050565b5080546000825560050290600052602060002090810190611a359190611a38565b50565b5b80821115611ab15760008082016000905560018201600090556002820160006101000a81549073ffffffffffffffffffffffffffffffffffffffff02191690556003820160006101000a81549073ffffffffffffffffffffffffffffffffffffffff0219169055600482016000905550600501611a39565b5090565b600081359050611ac481611fb7565b92915050565b600081519050611ad981611fce565b92915050565b600081359050611aee81611fe5565b92915050565b60008060408385031215611b0b57611b0a611fa5565b5b6000611b1985828601611ab5565b9250506020611b2a85828601611adf565b9150509250929050565b600060208284031215611b4a57611b49611fa5565b5b6000611b5884828501611aca565b91505092915050565b6000611b6d8383611b88565b60208301905092915050565b611b8281611df0565b82525050565b611b9181611df0565b82525050565b6000611ba282611d23565b611bac8185611d3b565b9350611bb783611d0e565b8060005b83811015611bef57611bcc82611f92565b611bd68882611b61565b9750611be183611d2e565b925050600181019050611bbb565b5085935050505092915050565b611c0581611e2e565b82525050565b611c1c611c1782611e2e565b611e9b565b82525050565b6000611c2e8286611c0b565b602082019150611c3e8285611c0b565b602082019150611c4e8284611b97565b9150819050949350505050565b6000606082019050611c706000830186611b79565b611c7d6020830185611b79565b611c8a6040830184611bfc565b949350505050565b6000604082019050611ca76000830185611b79565b611cb46020830184611bfc565b9392505050565b600060a082019050611cd06000830188611bfc565b611cdd6020830187611bfc565b611cea6040830186611b79565b611cf76060830185611b79565b611d046080830184611bfc565b9695505050505050565b60008190508160005260206000209050919050565b600081549050919050565b6000600182019050919050565b600081905092915050565b6000611d5182611e2e565b9150611d5c83611e2e565b9250827fffffffffffffffffffffffffffffffffffffffffffffffffffffffffffffffff03821115611d9157611d90611ed6565b5b828201905092915050565b6000611da782611e2e565b9150611db283611e2e565b925082821015611dc557611dc4611ed6565b5b828203905092915050565b600073ffffffffffffffffffffffffffffffffffffffff82169050919050565b6000611dfb82611e0e565b9050919050565b60008115159050919050565b600073ffffffffffffffffffffffffffffffffffffffff82169050919050565b6000819050919050565b6000611e4b611e4683611faa565b611dd0565b9050919050565b6000611e5d82611e2e565b91507fffffffffffffffffffffffffffffffffffffffffffffffffffffffffffffffff821415611e9057611e8f611ed6565b5b600182019050919050565b6000819050919050565b6000611eb082611e2e565b9150611ebb83611e2e565b925082611ecb57611eca611f05565b5b828206905092915050565b7f4e487b7100000000000000000000000000000000000000000000000000000000600052601160045260246000fd5b7f4e487b7100000000000000000000000000000000000000000000000000000000600052601260045260246000fd5b7f4e487b7100000000000000000000000000000000000000000000000000000000600052603160045260246000fd5b7f4e487b7100000000000000000000000000000000000000000000000000000000600052603260045260246000fd5b6000611f9e8254611e38565b9050919050565b600080fd5b60008160001c9050919050565b611fc081611df0565b8114611fcb57600080fd5b50565b611fd781611e02565b8114611fe257600080fd5b50565b611fee81611e2e565b8114611ff957600080fd5b5056fea264697066735822122092a26827012e54e78285d8e43b8c1c1c73e49ea8ceb90326c6130451d2d8678164736f6c63430008060033",
  "immutableReferences": {},
  "source": "// SPDX-License-Identifier: MIT\r\npragma solidity ^0.8.0;\r\n\r\n// may need to remove \"../node_modules/\" before compilation and migration\r\nimport \"@openzeppelin/contracts/token/ERC20/IERC20.sol\";\r\nimport \"@openzeppelin/contracts/utils/math/SafeMath.sol\";\r\n\r\ncontract LooneySwap{\r\n    using SafeMath for uint256;\r\n\r\n    struct LQProvision {\r\n        uint idx;       //index in the array in LPBalances mapping\r\n        uint LPidx;     //index in the LQProviders array\r\n        address owner;\r\n        address token;\r\n        uint amount;\r\n    }\r\n\r\n    //user address mapping to array with all of their token balances\r\n    mapping(address => LQProvision[]) public LPBalances;\r\n\r\n    //holds all available liquidity providers\r\n    address[] LQProviders;\r\n\r\n    function isLP(address LPAddress) private view returns(bool isIndeed) {\r\n        return LQProviders[LPBalances[LPAddress][0].LPidx] == LPAddress;\r\n    }\r\n\r\n    function addLiquidity(address tokenAddress, uint amount) external {\r\n        IERC20(tokenAddress).transferFrom(msg.sender, address(this), amount);\r\n        if(LPBalances[msg.sender].length == 0) {\r\n            LQProviders.push(msg.sender);\r\n            LPBalances[msg.sender].push(LQProvision(0, LQProviders.length-1, msg.sender, tokenAddress, amount));\r\n        } else {\r\n            bool added = false;\r\n            for (uint i = 0; i < LPBalances[msg.sender].length; i++) {\r\n                if(LPBalances[msg.sender][i].token == tokenAddress) {\r\n                    LPBalances[msg.sender][i].amount.add(amount);\r\n                    added = true;\r\n                }\r\n                if(!added) {\r\n                    LPBalances[msg.sender].push(LQProvision(LPBalances[msg.sender].length-1, LQProviders.length-1, msg.sender, tokenAddress, amount));\r\n                }\r\n            }\r\n        }\r\n    }\r\n\r\n    function withdrawLiquidity(address tokenAddress, uint amount) external {\r\n        bool found = false;\r\n        for (uint i = 0; i < LPBalances[msg.sender].length; i++) {\r\n            if(LPBalances[msg.sender][i].token == tokenAddress) {\r\n                found = true;\r\n                if(LPBalances[msg.sender][i].amount < amount) {\r\n                    revert();\r\n                }\r\n                LPBalances[msg.sender][i].amount.sub(amount);\r\n                if(LPBalances[msg.sender][i].amount == 0) {\r\n                    deleteLQProvision(msg.sender, tokenAddress);\r\n                }\r\n                IERC20(LPBalances[msg.sender][i].token).transfer(msg.sender, amount);\r\n            }\r\n        }\r\n        if(!found) revert();\r\n    }\r\n\r\n    function looneySwap(address tokenAddress, uint amount) external {\r\n        IERC20(tokenAddress).transferFrom(msg.sender, address(this), amount);\r\n        uint randAddress = random() % LQProviders.length;\r\n        uint randToken = random() % LPBalances[LQProviders[randAddress]].length;\r\n        address tokenToTransfer = LPBalances[LQProviders[randAddress]][randToken].token;\r\n        uint amountToTransfer = LPBalances[LQProviders[randAddress]][randToken].amount;\r\n        LPBalances[LQProviders[randAddress]][randToken].token = tokenAddress;\r\n        LPBalances[LQProviders[randAddress]][randToken].amount = amount;\r\n        IERC20(tokenToTransfer).transfer(msg.sender, amountToTransfer);\r\n    }\r\n\r\n    function random() private view returns (uint) {\r\n        return uint(keccak256(abi.encodePacked(block.difficulty, block.timestamp, LQProviders)));\r\n    }\r\n\r\n    //call this function when a user withdraws liquidity for a given token\r\n    function deleteLQProvision(address LPAddress, address tokenAddress) private returns(bool success) {\r\n        require(isLP(LPAddress));\r\n        require(LPBalances[LPAddress].length > 0);\r\n        if(LPBalances[LPAddress].length == 1) {\r\n            if(LPBalances[LPAddress][0].token == tokenAddress) {\r\n                deleteLQProvider(LPAddress);\r\n                LPBalances[LPAddress].pop();\r\n                delete LPBalances[LPAddress];\r\n                return true;\r\n            } else {\r\n                revert();\r\n            }\r\n        }\r\n        uint toDelete = 0;\r\n        bool found = false;\r\n        for (uint i = 0; i < LPBalances[LPAddress].length; i++) {\r\n            if (LPBalances[LPAddress][i].token == tokenAddress) {\r\n                toDelete = LPBalances[LPAddress][i].idx;\r\n                found = true;\r\n            }\r\n        }\r\n        if(!found) revert();\r\n        LQProvision memory toMove = LPBalances[LPAddress][LPBalances[LPAddress].length-1];\r\n        LPBalances[LPAddress][toDelete] = toMove;\r\n        return true;\r\n    }\r\n\r\n    //this function should only be called by deleteLQProvision. if the last LQProvision is withdrawn\r\n    //for a given LQProvider then deleteLQProvider will be called.\r\n    function deleteLQProvider(address LPAddress) private returns(bool success) {\r\n        require(isLP(LPAddress));\r\n        uint toDelete = LPBalances[LPAddress][0].LPidx;\r\n        address toMove = LQProviders[LQProviders.length-1];\r\n        LQProviders[toDelete] = toMove;\r\n        for (uint i = 0; i < LPBalances[toMove].length; i++) {\r\n            LPBalances[toMove][i].LPidx = toDelete;\r\n        }\r\n        LQProviders.pop();\r\n        return true;\r\n    }\r\n}",
  "sourcePath": "C:/Users/cpontrelli/Desktop/OSU Assignments/467/LooneySwap/truffle-env/contracts/LooneySwap.sol",
  "compiler": {
    "name": "solc",
    "version": "0.8.6+commit.11564f7e.Emscripten.clang"
  },
  "schemaVersion": "3.4.1",
  "updatedAt": "2021-07-11T18:06:10.734Z",
  "networkType": "ethereum",
  "devdoc": {
    "kind": "dev",
    "methods": {},
    "version": 1
  },
  "userdoc": {
    "kind": "user",
    "methods": {},
    "version": 1
  }
}